:0400000002001132B7
:03000B000200BA36
:17006A0075080F750900750A00750B00750C00E4F50DF50E02000EFC
:03000E00020109E3
:2000810074FC55B24403F5B253B1FC53B2F774F755B14408F5B143BA8090FE13E0FF74F733
:2000A1005F440890FE13F053BA7F22AF82E5B054FCFE74035F4EF5B022C0E0C007C006C069
:2000C100D075D000050DE4B50D02050EAE0DAF0EC3EE9488EF94134005E4F50DF50ED0D094
:2000E100D006D007D0E0327512007513E8751403758201120354D2A953B8FD74FD55B74448
:2001010002F5B7D2AFD28C221205511200811200E8E5082508FEE50933FFACB0530408E463
:2001210023CCC423541F6CCC541FCC6CCC30E40244E0FDEE4204EF42058C088D09AE08AF96
:2001410009EE7009EF20E005750A018036AE08AF09530701BEFF2CBF00297401B50A1774AB
:20016100FC250B400BAF0B0FEFFE3395E0FF800A7E007F008004AE0B7F008E0BE4F50AF5F6
:200181000DF50EE50B24FB50030202D1E50B75F003A4900197730201A60201F802020102D5
:2001A100023502029D7582001200ACC28BC289D2AAD2A8D28A43870200000000750C05E590
:2001C1000C6029E5B020E308E50CFF14F50C80EF750C057582001200ACC28BC289D2AAD254
:2001E100A8D28A4387020000000080D3E5B030E3FB750B010201127582031200AC020112D5
:20020100AE0DAF0EC3EE94F4EF940150097582011200AC0201127582021200ACAE0DAF0E55
:20022100C3EE94E8EF94035003020112E4F50DF50E020112AE0DAF0EC3EE9496EF9400408E
:2002410034742C9E74019F5009C3EE94C2EF94014023AE0DAF0EC374589E74029F5009C3FA
:20026100EE94EEEF9402400DAE0DAF0EC374849E74039F501E7582001200ACAE0DAF0EC3F6
:20028100EE94D0EF94075003020112E4F50DF50E0201127582031200AC020112AE0DAF0ED6
:2002A100C3EE94F4EF940150097582001200AC0201127582031200ACAE0DAF0EC3EE94E800
:1602C100EF94035003020112E4F50DF50E020112750B00020112A6
:06004000E478FFF6D8FD94
:20001E007900E94400601B7A00900688780175A000E493F2A308B8000205A0D9F4DAF275FA
:02003E00A0FF21
:2002D700AE82AF83C007C0061205E3AA82AB83ACF0FDD006D007E50F702375250CE4F52652
:2002F700F527F5288A828B838CF0EDC007C00612061BAA82AB83ACF0FDD006D0078E258F89
:20031700267527007528008A828B838CF0ED12061BAC82AD83AEF0FFA810A9117A007B004F
:20033700C3E89CE99DEA9EEB9F500490000022AA10AB11EAC39CF582EB9DF58322AF8274C4
:200357007F558EFE8F05ED0354804EF58E74FC5589FEE5124EF5897402B512188F0F751076
:20037700FF7511008513828514831202D7AD828D8C8D8A228F0F7510FF7511FF85138285F9
:2003970014831202D7AE82AF838F8C8E8A22AF8274BF558EFE8F05ED030354C04EF58E74E8
:2003B700CF5589FEE515C454F04EF5897402B515188F0F7510FF751100851682851783125F
:2003D70002D7AD828D8D8D8B228F0F7510FF7511008516828517831202D7AE82AF838F8D5D
:2003F7008E8B22AE82AF83C007C0061205E3AA82AB83ACF0FDD006D007E519702375250CEB
:20041700E4F526F527F5288A828B838CF0EDC007C00612061BAA82AB83ACF0FDD006D007AA
:20043700A818790008B8000109888289838E258F26C005C004C003C0021205FEAE82AF839F
:20045700D002D003D004D0058E258F267527007528008A828B838CF0ED12061BAC82AD8382
:20047700AEF0FFC374FF9C74FF9DE49EE49F50049000002274FFC39CF58274FF9DF58322E8
:20049700AF82851A188F19851B82851C83C0071203FAAD82AE83D00774FB558EFCEF2F25D1
:2004B700E04CF58E43BA8090FEA2E51AF053BA7F8ED68DD722AF82851D188F19851E828527
:2004D7001F83C0071203FAAD82AE83D00774FD55D1FCEF2F4CF5D143BA8090FEA3E51DF0F3
:2004F70053BA7F8ED48DD574DF55AFFFE520C42354E04FF5AF22AF828521188F198522824A
:20051700852383C0071203FAAD82AE83D00774DF55D1FCEFC42354E04CF5D143BA8090FEF0
:1A053700A4E521F053BA7F8ED28DD374BF55AFFFE524030354C04FF5AF2256
:200551007E007F0075BA8090FE01E0601A90FE01E4F07C007D007B051CBCFF011DEC4D707B
:20057100F7DBF58C068D0775BA00759D0075A600759F00759E001EBEFF011FEE4F70F72239
:20059100AF82759D008FA685259F759E007E007F001EBEFF011FEE4F70F722AE82AF8390C6
:2005B1000685E493FC740193FD1CBCFF011DEC4D70F71EBEFF011FEE4F70E422AE82AF8382
:2005D100900687E493FDDDFE1EBEFF011FEE4F70EF22900684E493FF8F257526007527006A
:0D05F10075280090C00075F0A8E402061BFC
:0406840001CC0401A0
:1D05FE00E5828525F0A4C582C0F08526F0A4D0F025F0C5838525F0A42583F5832268
:200046007800E84400600A790175A000E4F309D8FC7800E84400600C7900900001E4F0A3B8
:04006600D8FCD9FAEF
:20061B00FB7A20E4FCFDFEFFE5822582F582E58333F583E5F033F5F0EB33FB4017DAE98018
:20063B0042E5822582F582E58333F583E5F033F5F0EB33FBEC33FCED33FDEE33FEEF33FF47
:20065B00EC9525ED9526EE9527EF95284013EC9525FCED9526FDEE9527FEEF9528FF438229
:05067B0001DABEEB22D4
:0D001100758128120680E582600302000E52
:04068000758200225D
:00000001FF
